:10096B005246494420424153454420434152005092
:10097B0041524B494E472053595354454D004D411D
:10098B0044452042590047524F555020330053578E
:10099B0049504520594F555220434152442000287D
:1009AB00392D44494749542029004153534F43495A
:1009BB004154494F4E204D454D42455200307863CE
:1009CB003000444F4F52204F50454E494E47004147
:1009DB004C4C4F5720494E5349444500444F4F52BE
:1009EB0020434C4F53494E47004F555453494445B0
:1009FB0020504552534F4E004E4F20534C4F5420D6
:080A0B00464F5220594F5500DF
:100A1300C2A1C2A0120B7F120B3B7BFF7A09796B39
:100A2300120B187FC0120B637BFF7A09797A120BC2
:100A330018120B54120B547F01120B637BFF7A09BC
:100A43007989120B187FC0120B637BFF7A097991A6
:100A5300120B18120B54120B547F01120B637BFF02
:100A63007A097999120B187FC0120B637BFF7A09FD
:100A730079AA120B18E4F508C3E508940974809465
:100A830080501D3098FD74092508F8A699C2987402
:100A9300092508F8E6F5993099FDC299050880D82B
:050AA30012080080B400
:10080000E50964317033E50A6438702DE50B643115
:100810007027E50C64387021E50D6431701BE50E1E
:1008200064387015E50F6431700FE5106438700995
:10083000E511643170030208EBE50964317032E5BB
:100840000A6432702CE50B64317026E50C6432705A
:1008500020E50D6431701AE50E64327014E50F6402
:1008600031700EE51064327008E511643170028059
:100870007AE50964307032E50A6430702CE50B6467
:10088000307026E50C64307020E50D6430701AE598
:100890000E64307014E50F6430700EE51064307033
:1008A00008E511643070028042E50964316003029A
:1008B000094BE50A6431600302094BE50B643160C2
:1008C0000302094BE50C6431600302094BE50D643A
:1008D000317078E50E64317072E50F6431706CE54B
:1008E0001064317066E511643170607F01120B6332
:1008F0007BFF7A0979B5120B187FC8120B63120BB4
:1009000054120B547F01120B63D2A0C2A17BFF7A59
:100910000979CD120B187FC0120B637BFF7A09791E
:10092000DA120B18120AEBC2A0C2A1120B547F01FB
:10093000120B63120AEBC2A0D2A17BFF7A0979E7FE
:10094000120B18120AEBC2A0C2A1227F01120B6384
:100950007BFF7A0979F4120B187FC0120B637BFFBF
:0B0960007A0A7903120B18120AEB222E
:100B3B007F38120B637F01120B637F10120B637FE5
:090B4B000C120B637F80020B63A6
:0E0B63008F90C2A5C2A6D2A7120B54C2A72221
:0E0B71008F90D2A5C2A6D2A7120B54C2A72203
:0E0B5400E4FFFE0FBF00010EBE4EF8BF20F5FD
:010B62002270
:060B18008B138A148915FD
:100B1E00E4F516AB13AA14A9158516827583001277
:0C0B2E000AA8FF6007120B71051680E793
:010B3A002298
:0C0B7F00759850758920758DFDD28E226E
:100AEB00E4F513F514900000AF82AE83E4FCFD7BBC
:100AFB00607AEAF9F8D3120AD54003A380EA051409
:0C0B0B00E514700205136402451370D954
:010B170022BB
:03000000020B8B65
:0C0B8B00787FE4F6D8FD758116020A138D
:100AA800BB010CE58229F582E5833AF583E0225003
:100AB80006E92582F8E622BBFE06E92582F8E2224D
:0D0AC800E58229F582E5833AF583E4932267
:100AD500EB9FF5F0EA9E42F0E99D42F0EC6480C898
:060AE50064809845F02238
:00000001FF
